:100000000C9480030C94A8030C94A8030C94A803EC
:100010000C94A8030C94A8030C94A8030C94A803B4
:100020000C94A8030C94A8030C942D070C949F0720
:100030000C94A8030C94A8030C94A8030C94A80394
:100040000C94A8030C94A8030C94A8030C94A80384
:100050000C94A8030C94A8030C94A8030C94160AFF
:100060000C94A8030C94A8030C94A8030C94A80364
:100070000C94A8030C94A8030C94A8030C94A80354
:100080000C94A8030C94A8030C94A8030C94A80344
:100090000C94A8030C94A8030C94A8030C94A80334
:1000A0000C94A8030C94A8030C94A8035449544C32
:1000B0004500F0F89C8E8783878E9CF8F00000FE48
:1000C000FF0303030303070EFCF80000FEFF030316
:1000D000030303070EFCF80000FFFF000000000010
:1000E0000000FFFF0000FEFF8383838383C7EE7C55
:1000F000380000F8FC0E07030303070EFCF80000AD
:100100003F7FE0C08080C0E07F3FFFFF0101010131
:10011000010101FFFF0000FFFF0C0C0C0C1C3E77DF
:10012000E3C100007FFFC0C0C0C0C0E0703F1F003F
:10013000001F3F70E0C0C0C0E0703F1F00007FFFA5
:10014000C1C1C1C1C1E3773E1C00001F3F70E0C0C8
:10015000C0C0E0703F1F000000000001FFFF010071
:100160000000D5F08D14A1C881CFD9F1AF200001D6
:100170000204081020408000000000003E5B4F5B3E
:100180003E3E6B4F6B3E1C3E7C3E1C183C7E3C183A
:100190001C577D571C1C5E7F5E1C00183C1800FF1E
:1001A000E7C3E7FF0018241800FFE7DBE7FF30484C
:1001B0003A060E2629792926407F050507407F0546
:1001C000253F5A3CE73C5A7F3E1C1C08081C1C3E3D
:1001D0007F14227F22145F5F005F5F06097F017F2B
:1001E000006689956A606060606094A2FFA29408CE
:1001F000047E040810207E201008082A1C08081C11
:100200002A08081E101010100C1E0C1E0C30383E50
:100210003830060E3E0E06000000000000005F00B1
:10022000000007000700147F147F14242A7F2A127D
:100230002313086462364956205000080703000063
:100240001C2241000041221C002A1C7F1C2A080895
:100250003E080800807030000808080808000060A8
:10026000600020100804023E5149453E00427F4094
:100270000072494949462141494D331814127F10F3
:1002800027454545393C4A4949314121110907363D
:1002900049494936464949291E00001400000040DA
:1002A00034000000081422411414141414004122D4
:1002B000140802015909063E415D594E7C12111283
:1002C0007C7F494949363E414141227F4141413E7F
:1002D0007F494949417F090909013E414151737FE5
:1002E0000808087F00417F41002040413F017F080E
:1002F0001422417F404040407F021C027F7F04085F
:10030000107F3E4141413E7F090909063E4151218E
:100310005E7F09192946264949493203017F0103B5
:100320003F4040403F1F2040201F3F4038403F6338
:100330001408146303047804036159494D43007F92
:100340004141410204081020004141417F04020163
:100350000204404040404000030708002054547805
:10036000407F284444383844444428384444287F53
:10037000385454541800087E090218A4A49C787FAD
:100380000804047800447D40002040403D007F1078
:1003900028440000417F40007C047804787C0804F5
:1003A00004783844444438FC1824241818242418A9
:1003B000FC7C08040408485454542404043F442496
:1003C0003C4040207C1C2040201C3C4030403C44B1
:1003D000281028444C9090907C4464544C4400086D
:1003E000364100000077000000413608000201029B
:1003F00004023C2623263C1EA1A161123A40402063
:100400007A385454555921555579412154547841DD
:10041000215554784020545579400C1E527212399F
:100420005555555939545454593955545458000058
:10043000457C410002457D420001457C40F0292475
:1004400029F0F0282528F07C545545002054547C90
:10045000547C0A097F493249494932324848483276
:10046000324A4848303A4141217A3A4240207800A5
:100470009DA0A07D39444444393D4040403D3C244A
:10048000FF2424487E4943662B2FFC2F2BFF09298C
:10049000F620C0887E090320545479410000447D31
:1004A000413048484A32384040227A007A0A0A727B
:1004B0007D0D19317D2629292F2826292929263025
:1004C000484D4020380808080808080808382F1048
:1004D000C8ACBA2F102834FA00007B000008142A98
:1004E000142222142A14089500220095AA0055000F
:1004F000AAAA55AA55AA000000FF00101010FF007C
:10050000141414FF001010FF00FF1010F010F0146E
:100510001414FC001414F700FF0000FF00FF141473
:10052000F404FC141417101F10101F101F141414BF
:100530001F00101010F0000000001F101010101FFE
:1005400010101010F010000000FF1010101010100C
:10055000101010FF10000000FF140000FF00FF004B
:10056000001F10170000FC04F414141710171414C3
:10057000F404F40000FF00F714141414141414F716
:1005800000F7141414171410101F101F141414F46F
:10059000141010F010F000001F101F0000001F14B6
:1005A000000000FC140000F010F01010FF10FF1409
:1005B0001414FF141010101F00000000F010FFFFB3
:1005C000FFFFFFF0F0F0F0F0FFFFFF000000000081
:1005D000FFFF0F0F0F0F0F38444438447C2A2A3E88
:1005E000147E02020606027E027E026355494163C2
:1005F0003844443C04407E201E2006027E020299BC
:10060000A5E7A5991C2A492A1C4C7201724C304A54
:100610004D4D303048784830BC625A463D3E4949DD
:1006200049007E0101017E2A2A2A2A2A44445F4485
:100630004440514A444040444A51400000FF0103B5
:10064000E080FF000008086B6B083612362436067F
:100650000F090F06000018180000001010003040AD
:10066000FF0101001F01011E00191D1712003C3C73
:100670003C3C0000000000080B00020202010009DF
:1006800004000001020200000524001001052401FD
:100690000101042402060524060001070581031058
:1006A000004009040100020A0000000705020240A0
:1006B000000007058302400000040309044172643E
:1006C00075696E6F204C4C430041726475696E6FA2
:1006D000204C656F6E6172646F00120100020000B1
:1006E0000040412336800001010203011201000293
:1006F000EF02014041233680000101020301E40CB6
:1007000011241FBECFEFDAE0DEBFCDBF25E0A2E4AB
:10071000B1E001C01D92A33DB207E1F711E0A0E0F6
:10072000B1E0EAE7FBE102C005900D92A234B10707
:10073000D9F713E0C0E8D3E004C02197FE010E947E
:100740009A0DCF37D107C9F70E94600A0C94BB0DF0
:100750000C940000CF92DF92EF92FF920F931F93C1
:10076000CF93DF936C017A018B01C0E0D0E0CE150E
:10077000DF0589F0D8016D918D01D601ED91FC91D5
:100780000190F081E02DC6010995892B11F47E01BD
:1007900002C02196ECCFC701DF91CF911F910F913D
:1007A000FF90EF90DF90CF9008950895CF93DF935F
:1007B0000E940A0684E090E09093600580935F05B4
:1007C00089E090E09093620580936105CCEAD0E0E7
:1007D000FE016491662369F0E0914905F0914A05B4
:1007E0000190F081E02D89E495E009952196892B0F
:1007F00079F7DF91CF9108950E94A00DFC018091BF
:100800004801811103C08FEF9FEF08959FB7F894BF
:1008100082E08093E9002091F20030E01216130686
:1008200014F421E030E02115310559F0289884E6D0
:10083000809347018091F10080838091F2008823AA
:1008400019F09FBFC90108958BE68093E800F9CFA6
:100850002F923F924F925F926F927F928F929F92D0
:10086000AF92BF92CF92DF92EF92FF920F931F93BE
:10087000CF93DF93EC016A3069F42C8D888D998DCC
:1008800038E0239F800D911D1124998F888F1F8A36
:100890001E8AA1C06D3009F49EC03C8D5B8C4A8CD1
:1008A000C88CD98C8E899F898038910584F02C8DD5
:1008B000422F50E08E899F89A6E02A9F800D911DCE
:1008C00011249F8B8E8B2D8D211172C084C0B0E4BA
:1008D000CB16D10464F7AC01E5E03E9F400D511DFD
:1008E0001124141615061CF7A32EB12CA601F8E04E
:1008F0003F9F400D511D112414161506C4F625E026
:10090000629FB001112469587E4F912C40E1342E32
:10091000FB018490F5E09F1201C0812C760128E054
:10092000722E80FC02C0652C01C0642C611009C0CD
:10093000541007C086947A94EA0CFB1C7110F1CF16
:100940002EC0AC01242E242F281B231798F78701D3
:10095000202FE02FEE19E317F8F440385105C8F4C2
:1009600000341105B0F4EFE6F1E0329ED001A0783A
:100970001124A20D2770E20FF11D2491A75BBE4F39
:10098000662019F0EC912E2B03C02095EC912E23BC
:100990002C930F5F1F4FDCCF4F5F5F4FD3CF9394EC
:1009A0008A0D9B1D6F5F7F4FF6E09F12B1CF7FCF07
:1009B0006AEF64039001659F300D112420583F4F6A
:1009C0002817390744F4CE01E881F9810190F081BC
:1009D000E02D6AE0099581E090E0DF91CF911F91D1
:1009E0000F91FF90EF90DF90CF90BF90AF909F90CE
:1009F0008F907F906F905F904F903F902F900895D1
:100A00000895CF93DF931F92CDB7DEB76983DC01E2
:100A1000ED91FC910280F381E02D41E050E0BE01B8
:100A20006F5F7F4F09950F90DF91CF91089583E01D
:100A30008093E9008091F200882319F08AE3809383
:100A4000E8000895CF93DF931F92CDB7DEB7FC0186
:100A50008485958597FD05C02FEF3FEF3587248767
:100A60000BC0CE0101960E94FE03019719F4898103
:100A700090E002C08FEF9FEF0F90DF91CF9108952C
:100A80000F931F93CF93DF931F92CDB7DEB78C01E7
:100A9000FC018485958597FF0EC0CE0101960E94CA
:100AA000FE03019719F4298130E002C02FEF3FEFD8
:100AB000F80135872487F801848595850F90DF91AB
:100AC000CF911F910F910895FC018485958597FD25
:100AD0000BC09FB7F89482E08093E9008091F20008
:100AE0009FBF90E0019608959FB7F89482E08093AD
:100AF000E9008091F2009FBF90E008958F929F924D
:100B0000AF92BF92CF92DF92EF92FF920F931F931B
:100B1000CF93DF935C016B018A01809109018823E7
:100B200009F45EC080914801882309F459C080917E
:100B3000460180FF05C08091E00082608093E00064
:100B4000E8018AEFF82E93E0E92E2FE3822E3AE3B4
:100B5000932E209709F43DC08FB7F894E092E900F6
:100B60009091E80095FF06C09091F200282D291B76
:100B7000922F01C090E08FBF91110AC0FA94FF201C
:100B800079F161E070E080E090E00E94DC09E1CF63
:100B9000292F30E0C217D3070CF49C2F8FB7F8949D
:100BA000E092E9002091E80025FF11C0292F30E0F4
:100BB000C21BD30BF601915020F041914093F100FC
:100BC000FACFC20ED31E9091E80095FF13C08FBFDD
:100BD000C0CF5D9884E6809345011016110644F05D
:100BE00081E090E0F5019383828380E090E005C08E
:100BF000C80103C09092E800EACFDF91CF911F9126
:100C00000F91FF90EF90DF90CF90BF90AF909F90AB
:100C10008F90089520E089E491E0B22FB111BFEFE9
:100C2000FC010024B193B193B193B1930394D1F734
:100C30000895809149018EBDEAE4F1E081910DB4FF
:100C400007FEFDCF8EBD85E0E934F807B9F70DB496
:100C500007FEFDCF08952D9A0895BC0180E090E035
:100C60000C94DC098FB12CB193B130E02095309514
:100C700020743327A90123E0559547952A95E1F77C
:100C8000292F30E020953095207133273595279511
:100C900035952795242B8095807F822B089583B7E7
:100CA000817F83BF83B7816083BF889583B78E7F41
:100CB00083BF08958EBD00000DB407FEFDCF0895DB
:100CC00080916B0581110DC082E08093670584E0FF
:100CD0008093680510926A051092690581E08093FF
:100CE0006B0587E695E008954091D1055091D205B6
:100CF0002091CF053091D00542175307B4F490915D
:100D0000E8009570E1F39091E80092FD19C080939E
:100D1000F1008091D1059091D20501968F739927AA
:100D2000892B19F48EEF8093E8008091D105909182
:100D3000D20501969093D2058093D10581E0089564
:100D400080E00895DF92EF92FF920F931F93CF936D
:100D5000DF93D82E8A017B01E40EF51EEB01CE1540
:100D6000DF0571F0D7FE03C0FE01849101C08881C8
:100D70000E94740621968111F2CF8FEF9FEF01C080
:100D8000C801DF91CF911F910F91FF90EF90DF90FD
:100D90000895615030F02091F100FC01208301960C
:100DA000F8CF289884E68093470108953FB7F894D8
:100DB0008091CA059091CB05A091CC05B091CD054D
:100DC00026B5A89B05C02F3F19F00196A11DB11DA6
:100DD0003FBFBA2FA92F982F8827820F911DA11DE1
:100DE000B11DBC01CD0142E0660F771F881F991F1E
:100DF0004A95D1F708950F931F93CF93DF931F92D6
:100E0000CDB7DEB782E0898342E450E067E776E061
:100E100080E80E94A2060E946006DC0112960D91F5
:100E20001C9113970115110569F0D801ED91FC9102
:100E30000280F381E02DBE016F5F7F4FC8010995ED
:100E400097FF07C089810F90DF91CF911F910F917C
:100E50000895F80100851185E5CF1F920F920FB616
:100E60000F9211248F939F938091E1009091E10064
:100E7000937F9093E10083FF0FC01092E90091E00F
:100E80009093EB001092EC0092E39093ED0010929F
:100E9000480198E09093F00082FF20C093E0909387
:100EA000E9009091F200992319F09AE39093E800F9
:100EB00090914501992339F090914501915090937B
:100EC0004501992389F190914701992339F0909137
:100ED0004701915090934701992341F184FF10C03D
:100EE0008091E2008E7E81608093E2008091E1003B
:100EF0008F7E8093E100809146018E7E806111C0DB
:100F000080FF16C08091E2008E7E80618093E200B7
:100F10008091E1008E7E8093E100809146018E7E7B
:100F200081608093460104C05D9ACDCF289AD6CFC8
:100F30009F918F910F900FBE0F901F9018951F9249
:100F40000F920FB60F921124CF92DF92EF92FF9281
:100F50000F931F932F933F934F935F936F937F93C1
:100F60008F939F93AF93BF93EF93FF93CF93DF93B1
:100F7000CDB7DEB76C97DEBFCDBF1092E900809190
:100F8000E80083FFFAC168E0CE0145960E94C906D9
:100F900082EF8093E8008D8987FF05C09091E8007B
:100FA00090FFFCCF03C09EEF9093E800982F9076BF
:100FB00009F0C6C09E892F89188D91110CC0803808
:100FC00029F48091C8058093F10002C01092F100CD
:100FD0001092F10047C1422F50E0512B913051F453
:100FE000811140C14130510509F03CC18091C805D3
:100FF0008D7F0BC0933061F4811134C141305105B4
:1010000009F030C18091C80582608093C8052AC16B
:10101000953041F48091E80080FFFCCF2068209358
:10102000E30020C1963009F05FC0EB8CFC8C10927D
:10103000E9001092D2051092D105123091F510926C
:10104000D0051092CF050E94FB0699E0BE016F5FAC
:101050007F4FDB01E92F1D92EA95E9F799831A8307
:1010600091E09E8390EA98879AEF99872091D10525
:101070003091D205275F3F4F3C832B838D831092A5
:10108000E9001092D2051092D105F092D005E092BD
:10109000CF0549E050E080E00E94A2060E94FB06D6
:1010A000E1C0F092D005E092CF050E946006DC011D
:1010B0001296ED90FC901397E114F10409F4C0C06E
:1010C000D701ED91FC910480F581E02DBE016B5EAE
:1010D0007F4FC7010995009719F00CF0C3C0C6C037
:1010E000F701E084F184E8CF973009F4BFC098306D
:1010F00021F481E08093F100B5C0993009F0B2C0CD
:10110000837009F0B3C0EBE3F1E081E021E036E366
:101110009081992361F08093E9002093EB009191F5
:101120009093EC003093ED008F5F873089F78EE766
:101130008093EA001092EA008F898093480192C060
:101140008B8D9C8D1092E9001092D2051092D105E2
:101150009093D0058093CF05898D811156C08E89DB
:101160009D89913A59F4813209F080C047E050E0FE
:1011700062E071E080E00E94A20674C0913209F042
:1011800075C0833289F4888D90E0982F88272F8945
:10119000822BA0E0B0E080930A0190930B01A09312
:1011A0000C01B0930D015EC0803269F48091E800BB
:1011B00082FFFCCF67E082E091E00E94C9068BEFDE
:1011C0008093E80006C0823209F04CC08F8980937A
:1011D00009018091C705882319F0EEEFFAE002C0FB
:1011E000E0E0F8E08091020190910301A0910401F8
:1011F000B0910501803B9440A105B10509F088C07C
:101200008091090180FFA0C083C00E946006DC01BC
:1012100012960D911C9113970115110539F1D80102
:10122000ED91FC910190F081E02DBE016B5E7F4F4E
:10123000C8010995811116C0F80100851185ECCF10
:101240001130C1F0133091F48F89882309F455C00F
:101250008230E9F440E860E189EC96E00E945D0D9F
:10126000882321F08EEF8093E80087C081E280938D
:10127000EB0083C08B8D9C8D089711F41093CE05E5
:101280008091CE05811136C06AED76E038C081309C
:1012900029F440E86BE08DEB96E0E0CF833031F746
:1012A0000E946006DC011296ED90FC9013978E016F
:1012B0000F5F1F4F6801E114F10479F0D701ED9140
:1012C000FC910680F781E02DB801C7010995080F50
:1012D000111DF701E084F184EECFD8011C92F601D4
:1012E00001900020E9F73197BF016C197D0940E0BA
:1012F000C601B4CF6CEE76E002C069EB76E0611512
:10130000710509F4B3CFFB01449150E080E833CF7D
:101310000FB6F894A8958091600088618093600072
:10132000109260000FBEA895EE3F2AE0F20739F058
:101330008091FE0A9091FF0A9183808393CF10924F
:10134000FF0A1092FE0A8ECFEE3F8AE0F80731F0D6
:10135000808191819093FF0A8093FE0A87E797E747
:10136000918380839BE088E10FB6F894A8958093E1
:1013700060000FBE9093600075CF6C960FB6F89426
:10138000DEBF0FBECDBFDF91CF91FF91EF91BF9137
:10139000AF919F918F917F916F915F914F913F910D
:1013A0002F911F910F91FF90EF90DF90CF900F90B2
:1013B0000FBE0F901F9018958F929F92AF92BF9281
:1013C000CF92DF92EF92FF926B017C010E94D606D2
:1013D0004B015C01C114D104E104F104F1F00E945D
:1013E000D606DC01CB0188199909AA09BB09883EF8
:1013F0009340A105B10570F321E0C21AD108E108BC
:10140000F10888EE880E83E0981EA11CB11CC1145F
:10141000D104E104F10419F7DDCFFF90EF90DF90E4
:10142000CF90BF90AF909F908F9008951F920F9292
:101430000FB60F9211242F933F938F939F93AF93E7
:10144000BF938091C3059091C405A091C505B0914B
:10145000C6053091C90523E0230F2D3720F40196EE
:10146000A11DB11D05C026E8230F0296A11DB11DC7
:101470002093C9058093C3059093C405A093C50527
:10148000B093C6058091CA059091CB05A091CC057B
:10149000B091CD050196A11DB11D8093CA05909311
:1014A000CB05A093CC05B093CD05BF91AF919F9193
:1014B0008F913F912F910F900FBE0F901F90189515
:1014C000789484B5826084BD84B5816084BD85B51F
:1014D000826085BD85B5816085BD80916E0081602B
:1014E00080936E00109281008091810082608093D1
:1014F00081008091810081608093810080918000D3
:10150000816080938000809191008260809391003F
:101510008091910081608093910080919000816022
:10152000809390008091C10084608093C10080917D
:10153000C10082608093C1008091C100816080936E
:10154000C1008091C30081608093C3008091C0007E
:1015500082608093C0008091C20081608093C2004D
:1015600080917A00846080937A0080917A00826012
:1015700080937A0080917A00816080937A008091D4
:101580007A00806880937A00109248011092C80512
:10159000109246018091D70081608093D70080EA45
:1015A0008093D80089B5806189BD89B5826089BD85
:1015B00009B400FEFDCF61E070E080E090E00E94A1
:1015C000DC098091D8008F7C80618093D800809165
:1015D000E000807F8093E0008091E1008E7E809328
:1015E000E1008DE08093E200559A209AEEEFFFE74C
:1015F000859194918B3F9C4D19F481E08093C705B0
:1016000081EC80937C0085B1806F85B9249884B18A
:10161000866E84B95E9A5F988AB1806D8AB9769A2F
:101620006E9881B3806F81BB899880B38D7080BBC9
:1016300080E58CBD81E08DBD85E090E00E942D06A7
:101640005F9A85E090E00E942D065E985C98C2E665
:10165000D1E01C2F135FFE0184910E945A0621964F
:101660001C13F9CF5C9A81E88093640081E0809339
:101670006500C0E0D4E080E00E945A062197D9F7C7
:101680000E94320687FF1FC05C9885EA0E945A06B6
:101690005C9A2E982F982D98809164008062809398
:1016A00064000E944F06FDCF2D980E943206847878
:1016B000843871F00E9432068471843131F188ECF3
:1016C00090E00E942D060E94320682FDEDCF3AC0C6
:1016D0000E942B0688EC90E00E942D062F9882E055
:1016E00090E00E94A50D8F3F29F06FEF82E090E01F
:1016F0000E94AD0D84EF91E00E942D062F9A0E946A
:10170000320684788438D9F3D5CF0E942B0688EC32
:1017100090E00E942D062E9882E090E00E94A50D98
:10172000882329F060E082E090E00E94AD0D84EF14
:1017300091E00E942D062E9A0E9432068471843117
:10174000D9F3BDCF0E942B0682E090E00E94A50D48
:10175000882331F03E9A3F9A81E08093420104C091
:10176000109242013E983F982E98CEEEDFEF08E0AF
:1017700010E00E94320686FF04C02E9A2F9A2D9AFE
:101780008BC0CC3F2FEFD20719F42E9A2F9805C0AB
:10179000C831D10511F42F9A2D980E940A06C03F36
:1017A0004FEFD40784F40E9419068BE190E00E9469
:1017B0002D06C03F5FEFD50709F059C08AEF90E0D2
:1017C0000E942D0654C09E01D7FF04C02227332754
:1017D0002C1B3D0B27703327CE01D7FD079653E016
:1017E000959587955A95E1F7D7FF05C00197D801E0
:1017F000A21BB30B9D017C01F694FE2CEE24F79402
:10180000E79460E070E04801821A930AF701E0581B
:10181000FF4F5F018F3FFFEF9F0744F40196685A27
:101820007F4F7501603B710589F7BDCFD701A3528A
:10183000BE4F40E050E08F3FEFEF9E0709F4A9C094
:10184000FA01E60FF71FEE54FF4FE4916D01CA183D
:10185000DB08CE0CDF1CF0E02F01022E01C0440C8F
:101860000A94EAF7F60170804728408292C02196D8
:10187000C931D10509F07DCF8CEB92E00E942D0695
:101880000E942B06E0914D05F0914E050190F081EC
:10189000E02D8DE495E0099582E390E00E942D060D
:1018A0000E9432068111F8CF80E18093540580E0D8
:1018B00091E09093440180934301C0E0D0E011E0B7
:1018C0002FB7F8948091C3059091C405A091C505E8
:1018D000B091C6052FBF4091590550915A056091AE
:1018E0005B0570915C0520915D05222341F02091FC
:1018F0005505821B80935E0510925D0544C08417D8
:101900009507A607B70730F4481B4230E0F10E9464
:101910004F0639C010935D05809355059093560589
:10192000A0935705B093580520915405820F911D3F
:10193000A11DB11D8093590590935A05A0935B0595
:10194000B0935C058091500590915105019690935C
:101950005105809350058091430190914401DC0131
:10196000ED91FC910190F081E02D0995809143016A
:1019700090914401DC01ED91FC910280F381E02D16
:1019800009950E941906209709F49ACF0E94000039
:1019900097CF2115310581F0FA01E60FF71FEE54BC
:1019A000FF4FE491F0E0082C02C0F595E7950A940A
:1019B000E2F7DC90ED29EC934F5F5F4F11964835CD
:1019C000510509F038CF2ACFE3E7F5E01382128200
:1019D00088EE93E0A0E0B0E084839583A683B7838C
:1019E0008EE191E0918380838FEF9FEF95878487CD
:1019F000E9E4F5E0138212821186128620E1238742
:101A000090878783108A118A128A138A148A8EE239
:101A100091E09183808388E391E095838483178AA2
:101A2000168A118E108E81E0828F138E848F158E10
:101A300008950F931F93CF93DF938C0181E090E083
:101A40000E94A50D80FF31C08AE090E00E94A50DA4
:101A50009FEF980F9E3F48F522E330E0D80157965C
:101A60003C932E93569728E330E059963C932E935F
:101A70005897CBE0D0E0D801ED91FC910190F08136
:101A8000E02D682FC8010995CE010E94A50D219671
:101A9000C131D10581F70E94190688EE93E0DF91EC
:101AA000CF911F910F910C942D06DF91CF911F9133
:101AB0000F91089504970C94190DCF92DF92EF9235
:101AC000FF920F931F93CF93DF931F92CDB7DEB793
:101AD000182F062FE42E862F880F8E5F99830E9481
:101AE000740683E00E947406F12EC12E9981D92ECE
:101AF0008C2D8F19801798F4F601E7FE02C08491AF
:101B000001C080810E947406182F80E00E94740634
:101B10008123FFEFCF1ADF0A8111EACF01C081E0F4
:101B20000F90DF91CF911F910F91FF90EF90DF9079
:101B3000CF900895EE0FFF1F0590F491E02D0994CA
:101B400081E090E0F8940C94BB0DF999FECF92BD22
:101B500081BDF89A992780B50895262FF999FECF6F
:101B60001FBA92BD81BD20BD0FB6F894FA9AF99ABA
:0A1B70000FBE01960895F894FFCF10
:101B7A00160100E1000000000000FFFFFFFF010066
:101B8A00000000000000D503D60300000000010594
:101B9A007E0564052205400517050000000028049B
:101BAA00AA03190DFCFF00005A0D00C18081000034
:021BBA00000029
:00000001FF
